:020000041004E6
:1000000058080130ED010410F5010410F701041047
:1000100000000000000000000000000000000000E0
:1000200000000000000000000000000009020410B1
:1000300000000000000000000B0204100D0204107C
:100040000F0204100F0204100F0204100F0204101C
:100050000F0204100F0204100F0204100F0204100C
:100060000F0204100F0204100F0204100F020410FC
:100070000F0204100F0204100F0204100F020410EC
:100080000F0204100F0204100F0204100F020410DC
:100090000F0204100F0204100F0204100F020410CC
:1000A0000F0204100F0204100F0204100F020410BC
:1000B0000F0204100F0204100F0204100F020410AC
:1000C0000F0204100F0204100F0204100F0204109C
:1000D0000F0204100F0204100F0204100F0204108C
:1000E0000F0204100F0204100F0204100F0204107C
:1000F0000F0204100F0204100F0204100F0204106C
:100100000F0204100F0204100F0204100F0204105B
:100110000F0204100F0204100F0204100F0204104B
:100120000F0204100F0204100F0204100F0204103B
:100130000F0204100F0204100F0204100F0204102B
:100140000F0204100F0204100F0204100F0204101B
:100150000F0204100F0204100F0204100F0204100B
:100160000F0204100F0204100F0204100F020410FB
:100170000F0204100F0204100F0204100F020410EB
:100180000F0204100F0204100F0204100F020410DB
:100190000F0204100F0204100F0204100F020410CB
:1001A0000F0204100F0204100F0204100F020410BB
:1001B0000F0204100F0204100F0204100F020410AB
:1001C0000F0204100F0204100F0204100F0204109B
:1001D0000F0204100F0204100348854600F058FA7D
:1001E0000048004721090410580801300C48804796
:1001F0000C480047FEE77046EFF30881EFF30982F1
:10020000094B98470047FEE7FEE7FEE7FEE7FEE7FB
:10021000ABBE064B7446984720477046F047000037
:10022000AD080410D9010410DB0704102F080410D6
:1002300003460B439B0703D009E008C9121F08C0FF
:10024000042AFAD203E00B780370401C491C521EAA
:10025000F9D27047D2B201E00270401C491EFBD2B5
:1002600070470022F6E710B513460A4604461946C1
:10027000FFF7F0FF204610BD30B50B4601460020C9
:100280002022012409E00D46D5409D4205D31D469C
:100290009540491B2546954040191546521E002D94
:1002A000F1DC30BDF0B51FB40646002082B0054633
:1002B0004024019100901BE0019922460F463046F0
:1002C00000F008FA049A059B801A994110D3104651
:1002D0001946224600F0EEF9361A8F410197224660
:1002E00001200021009F00F0E5F938184D410090F1
:1002F0002046641E0028DFDC019B00982946324618
:1003000007B0F0BDF0B507460846584087B0C00FAB
:10031000049048000E46590040084908BC1A88411C
:1003200005D2384631461E4617460B46024658004F
:10033000400810434CD0300D039040055900400D4B
:10034000490D0590401A0290402872DA18030121E5
:10035000000B09050843019004980092002805D07D
:100360000199524200208841009201900298402158
:100370000A1A0199009800F09DF905460C466B4653
:1003800007CB00F0B8F9C0197141039A0E0D002394
:10039000D71756401A467A40164344D0049A002A8A
:1003A0002DD0029A012A039A15DC1205C01A914138
:1003B00001263605001C7141D20F059ED20700931D
:1003C000019202962A46234600F0B5F907B0F0BD27
:1003D00038463146FAE71605224A0F46B218C01AC7
:1003E000B74101210905001C4F4100187F4111460A
:1003F00018187941E20F10436D19644113E0E207C8
:100400006D0815436408C2071443039A01261205B8
:10041000C01A91413605001C7141CE074008304397
:100420004908C01851412A46234600F077F9CDE724
:10043000FFE7049801224000C117121A00238B41E4
:1004400004983146C417381AA141EEE730B40124AC
:10045000E407634030BC55E730B40124E407614051
:1004600030BC4FE70000E0FFF0B51FB488B00B9937
:100470000998002448400999C00F4900490809918A
:10048000C0070B990090490049080B9109990898F9
:10049000A64608431CD00B990A98084318D009981F
:1004A00001244000420D4800410D09982405000335
:1004B000000B204309900B980003000B20430B9086
:1004C00050181C494018002201901446104605E0BF
:1004D000002001460DB0F0BD032801DA034600E01C
:1004E00003239C46C11A0AAE0AE05F0008ADED5B2B
:1004F0004F00F75B7D430027AA187C41491C5B1E17
:100500006145F2DD410004AB5A522104120C0A434A
:10051000240C401C0828DFDB0198029000997046EB
:1005200001910090059B049A0799069800F003F941
:10053000D0E700000DFCFFFFF0B50C465C4085B035
:10054000E40FE40703944C00002664085900944625
:10055000490802460296224321D062460A431ED031
:100560006200570D4A000E032303550D0124024675
:100570002C492405781B1B0B360B401823432643BC
:10058000614600901C46501AB44103D30098401CA9
:10059000009002E0921800985B41002803DA0020E6
:1005A000014605B0F0BD0020012109050746864639
:1005B00011E064461D46141BB54106D36546521B27
:1005C000B341744607430C43A646CD07400849088B
:1005D000284392185B4105460D43EAD11046184363
:1005E00013D06046194650407140084306D060461B
:1005F000101AB34106D20122002306E00022012393
:10060000DB0702E00122D243531000987446010533
:10061000381C6141029C039D0019694100F07EF87D
:10062000BFE70000FD0300004A0009030123090B96
:100630001B0519430A4B10B5520D9A4202DA0020ED
:10064000014610BD064B34339A4203DC9A1A00F07F
:1006500041F810BD034BD21800F02CF810BD00007B
:10066000FF030000CDFBFFFF10B5002904DB0124D0
:10067000E40740428C412146002B04DB1C46012349
:10068000DB075242A341994200D1904210BD0000C5
:10069000064C0125064E05E0E36807CC2B430C3CD5
:1006A00098471034B442F7D3FFF79AFD8818041026
:1006B0009818041010B5202A04DB0146203A914016
:1006C000002010BD914020239C1A0346E3401943AB
:1006D000904010BD10B5202A04DB0846203AD040D7
:1006E000002110BD0B46D340D0402024A21A9140D7
:1006F0000843194610BD10B5202A06DBCB17084663
:10070000203A1041C1170B4306E00B461341D0407D
:100710002024A21A91400843194610BD10B5002BA1
:1007200008DA0024401C614192185B411A4301D150
:100730004008400010BDF0B51FB482B005460C0063
:1007400003D0084600F016FB02E000F013FB203057
:100750000246009021462846FFF7ACFF049B059A0D
:1007600004460F4618431143084314D0184610435B
:100770001BD0009840210A1A18460599FFF7AAFFD6
:1007800005460E46009A05990498FFF793FF084323
:1007900005D0012004E02046394607B0F0BD002016
:1007A000C11705430E432C43374300990E98630548
:1007B000401A7905E40A00220C43FD0A0A3002D5EA
:1007C00000200146E9E70105101969410C9C0D9DC7
:1007D00000196941FFF7A2FFDFE7B0B587B0134604
:1007E0000C46054606900591049206A8007840063E
:1007F00000280293019400950DD5FFE706A8007824
:100800004007002803D5FFE70498039002E005980D
:100810000390FFE7FFE7FFE7039800680121084323
:10082000002801D0FFE7F7E7069807B0B0BDB0B5E4
:1008300086B013460C4605460590049103920020AD
:1008400002930194009506B0B0BD80B582B0014618
:1008500001900198009100F003F802B080BD000003
:1008600082B0014601900091FFE70E480068000247
:10087000002801D5FFE7F8E701980B49086001A8B7
:1008800000780A280CD1FFE7FFE70648006800025D
:10089000002801D5FFE7F8E703480D210160FFE7D5
:1008A00002B0704718000750000007500148024985
:1008B000086070470000041008ED00E080B588B0C3
:1008C0000A46034607900691002005900492039380
:1008D000FFE7069801280DDBFFE7079805994A1CFA
:1008E0000592415C064800F035FA0699491E0691CA
:1008F0000290EEE7D84800F02DFA019008B080BDD4
:100900008218041080B584B00A4603460390029111
:10091000039801920093FFF798FF039804B080BDFD
:10092000F0B503AFFFB0ACB06E46E5488019F11DDD
:10093000A5310022C263C44B8363C44B4363C44BE1
:100940000363C44BC362C44BDE4CA0511846DE4C5B
:10095000A151DE498A51DE498B5100F0FBF9BF49B4
:10096000DC4A90510846DC4A915100F0F3F9BC4949
:10097000DA4A9051084600F0EDF9D7498959D84A2A
:100980009051084600F0E6F9B649D64A9219D64B7E
:10099000985108461146D54B9A5100F0DBF92021B9
:1009A000C84A92599162916A6B4653628B00DB1D73
:1009B0000724E44323406D46EB1A9D461162916A79
:1009C000CB4A90511846F467B367FFF74AFC66229A
:1009D000C6488059B16F00F099F9A34800F0BAF900
:1009E000B8498959896AB26F70671046FFF766FF88
:1009F000B748805900F0AEF9B749895930670846C1
:100A000000F0A8F99949F066084600F0A3F9B24948
:100A10008959B066084600F09DF99549A94A92594E
:100A2000D16194499161944951619449116194490A
:100A30007066084600F08EF9AE49891910223066BA
:100A40000846F1651146B265FFF738FFB06D9D4964
:100A50008959C860CA68D31DF46F23406D46EB1AEC
:100A60009D468A60C96818467365FFF7FAFBC8207F
:100A70000123F16D30650846716D326D00F04CF95F
:100A8000804800F067F98F498959C968726DF06430
:100A90001046FFF713FFB06D8A49895948604A68CC
:100AA000D31DF46F23406D46EB1A9D460A604968DA
:100AB0001846B364FFF7D5FB706DB16C326D834B94
:100AC0009B5900F029F9704800F044F97D49895993
:100AD0004968B26C70641046FFF7F0FE7C4880599C
:100AE00000F038F97C4989593064084600F032F941
:100AF0006649F063084600F02DF977498959B063DB
:100B0000084600F027F96249F21DB13219237063DB
:100B100010461A46FFF78CFB77498919774A9219D4
:100B2000774B9B1940F22E143063084611461A4643
:100B3000234600F0F7F864498959886088680028DE
:100B400017D1FFE755486C49891900F003F954495A
:100B50006A4A9219F0620846114600F0FBF85149C2
:100B6000674A9219B0620846114600F0F3F87062C5
:100B700019E0554880598168491C002905D1FFE7D3
:100B8000454800F0E7F830620CE04F488059816832
:100B9000891C002905D1FFE73E4800F0DBF8F06131
:100BA000FFE7FFE7FFE7F01DB13040F22E1100F044
:100BB000BFF85148801953498919534A9219F31DB6
:100BC000CD3300F0BBF84049895948604868012896
:100BD00017D1FFE73548F11DB13100F0BBF83449BA
:100BE000494A9219B0610846114600F0B3F83149FC
:100BF000F21DCD3270610846114600F0ABF830614D
:100C000004E0294800F0A6F8F060FFE73B488019AF
:100C10003B4989193C4A9219F31DCD3300F094F8F1
:100C20002949895908600868022805D1FFE7234847
:100C300000F090F8B06004E01F4800F08BF870609E
:100C4000FFE7FFE7FFE7FDE76465660039414243E0
:100C500035363738313233344A18041095160410BB
:100C6000B91704104E17041060180410EA17041086
:100C7000CCDDEEFF8899AABB44556677001122337C
:100C800058180410521804104C1804101B180410A3
:100C9000691804101417041033170410A717041050
:100CA000591704106B170410F2160410991704104A
:100CB0007D1704108B170410C61604106C16041050
:100CC0006C020000A8000000A4000000A0000000CA
:100CD0009C000000980000009400000090000000BC
:100CE0008C000000980200008800000084000000D2
:100CF000800000007C02000028020000A00100002B
:100D00005C010000E40100001801000003B4014888
:100D1000019001BD21F0030003B40148019001BD21
:100D200029F0030003B40148019001BD01F0030064
:100D300003B40148019001BD11F0030003B4014860
:100D4000019001BD09F0030003B40148019001BD09
:100D500019F003000FB410B503A9044B044A02981C
:100D600000F0E8F810BC08BC04B0184705090410EE
:100D7000000001302021020C01D010211046020A8F
:100D800001D010460839020901D01046091F820817
:100D900001D01046891E420801D0881E7047081AEB
:100DA000704702E008C8121F08C1002AFAD1704734
:100DB0007047002001E001C1121F002AFBD17047DB
:100DC000F0B51FB486B00998089A030D00210243BC
:100DD00014D05148514A181850430514119801284D
:100DE00010981AD0281A401C00264D4F4D490096E5
:100DF00001910490002812DA444211E01198012474
:100E000049A3012801D11098C1430698119A846022
:100E10000360C26041600BB0F0BD4042E4E70446AD
:100E2000210500203F4A001C51410391029012E02D
:100E3000E00707D032463B4601990098FFF714FBC4
:100E40000191009032463B4610461946FFF70CFBD5
:100E500006460F466410002CEAD10498039B002834
:100E6000029A0999089806DAFFF7FEFA019B009AA0
:100E7000FFF7FAFA05E0FFF75FFB019B009AFFF727
:100E80005BFB04460E460022284BFFF7EDFB03D820
:100E90000020C043014607E00022254B2046314692
:100EA000FFF730FAFFF7C0FB102409E0002C0ADB43
:100EB0000A220023FFF7F6F9079B30321A55641E09
:100EC00002460A43F2D11122641C079B121B1C1913
:100ED000119B012B03D0012308430ED10AE00843E4
:100EE00004D0112010900020119077E71098151A67
:100EF0006D1E0BE01098824202DD00236D1C03E0A2
:100F0000824201DA00236D1E002BEED00698119963
:100F10008260C16030C07EE701FCFFFF104D000021
:100F2000000014400000F03F300000000000F043DB
:100F30000000E03FFFB597B00646002518E22528DF
:100F400077D100242746FD49049400E00443761C31
:100F500032780120203A90400842F7D130782A2890
:100F60000ED00222307801463039092916D804996A
:100F70000A235943303940181443761C0490F1E792
:100F8000189802C804911890002904DA012040033F
:100F900004434842049002200443761C30782E28F3
:100FA00014D1042004437078761C2A2809D118989B
:100FB000761C80C8189009E00A214F43303FC719BA
:100FC000761C3078014630390929F5D930786C28FB
:100FD00010D006DC4C281AD068280ED06A2817D109
:100FE00004E0742813D07A2812D110E001204005C3
:100FF00004430CE00121090501E0032109050C432C
:101000007178814203D1012000052418761C761CDA
:101010003078119066280BD013DC58287DD009DC7D
:1010200000287BD04528F6D04628F4D047281AD18E
:10103000A5E118E0632835D0642870D0652812D166
:101040009DE170286CD008DC6728F1D069287BD03E
:101050006E280DD06F2806D1BAE073282ED07528DF
:1010600071D0782859D01A9A199990476D1C7EE151
:101070006002400F022809D003280DD004281898D8
:1010800001680DD00D60001D189070E11898EA17E6
:1010900001680D604A60F6E7189801680D80F2E774
:1010A0000D70F0E718986A4601781172001D1890CB
:1010B0000020507202A80090012005E0189802C894
:1010C000189000200091C04361070DD5002101E078
:1010D0000199491C0191B94212DA8142F8DB009A68
:1010E000515C0029F4D10BE0002101E00199491C79
:1010F00001918142FADB019A0099895C0029F5D1BE
:10110000019904981A9B471A21463846199A00F00B
:1011100097FA0199401945180BE04FE02CE113E0D4
:101120004EE0009800990078491C00911A9A19998C
:1011300090470198401E0190401CF2D1214638464C
:101140001A9B199A10E137E00A20002100900191C2
:101150006002410F022907D0189A01CA1892C217DB
:101160009446032908D00AE01898C01DC108C90098
:1011700005C91891944607E000B2C21794460429A5
:1011800002D140B2C1178C4600226146944506DA6E
:101190000A460021404291418C462D2102E0210562
:1011A00004D52B216A461173012103E0E10701D028
:1011B0002021F7E7029155E00A200AE0102008E01C
:1011C000102000900021042004430191082703E02F
:1011D00008200021019100906002410F022907D0F0
:1011E000189A01CA189200229446032908D008E0F0
:1011F0001898C01DC108C90005C91891944603E09C
:1012000080B2042900D1C0B200210291210729D562
:101210001199702906D0009A1021019B4A401A4367
:1012200005D00EE040216A461173012108E06146B5
:10123000014306D030216A4611731199517302217E
:101240000291009A0821019B4A401A430AD1614643
:10125000014301D1610705D530216A46117301218F
:101260007F1E02911199582904D035A10E910DA924
:101270000D910DE037A1F9E76146019B009AFFF758
:1012800011F80E9B8C469B5C0D9A521E0D921370AA
:1012900061460143F0D10D9805A9081A203001904C
:1012A000600703D501200004844300E00127019872
:1012B000874201DD381A00E00020019900904118B2
:1012C000029809180498401A0490E00306D42146B5
:1012D0001A9B199A049800F0B3F94519002706E003
:1012E00003A81A9AC05D199990476D1C7F1C02983B
:1012F0008742F5DBE0030CD521461A9B199A049826
:1013000000F09EF9451904E01A9A30201999904787
:101310006D1C0099481E00900029F5DC08E00D982E
:101320000D990078491C0D911A9A199990476D1CD6
:101330000199481E01900029F1DC63E109280100B0
:10134000303132333435363738396162636465663B
:1013500000000000303132333435363738394142FD
:10136000434445460000000000F05AF94519761C38
:101370003078002800D0E2E528461BB0F0BD6007B9
:1013800000D406271898C01DC108C90048680A681B
:101390000831C30FDB071891190001D09CA108E0A8
:1013A000210501D59BA104E0E10701D09AA100E04D
:1013B0009AA1430011985B08109165280CD006DCB7
:1013C000452809D046281DD0472841D141E066284C
:1013D00018D067283CD13CE00021112F01DB1120FF
:1013E00000E0781C0191009008A911A8FFF7E8FC23
:1013F000139905910021119A15927F1C129801975B
:10140000009150E00120C00703900120019008A93D
:10141000009711A8FFF7D4FC139A149905920022A3
:10142000119B009212981593059A0192002901D000
:10143000104602E0791C40180190381A01D5019835
:1014400004E04042401E0090781C0190C01B0290B6
:1014500043E0012F00DA01270021112F01DD1120C7
:1014600000E038460191009008A911A8FFF7A8FCF8
:1014700013990591119A00211298159200910197E4
:1014800021070CD40599B94201DB019900E00191D3
:10149000012904DD159A491E515C302906D0B84255
:1014A00001DA011D05DA0121029115E00199491EB9
:1014B000EDE7002805DC0099411800910199091A0F
:1014C00003E0019A411C914200DD01910099401A0C
:1014D000401C02900120C0070390200706D4029907
:1014E0000198814202DB0020C0430290002069463F
:1014F000C87707AF012103980337C907884224D072
:10150000022011902B201290039800280CDA404200
:1015100003902D20129007E00A210398FEF7ACFEFD
:1015200030317F1E039039701199481E11900029A7
:10153000F2DC03980028EFD1791E129808703078F9
:10154000202108404530BF1E387006A8C01BC01DB2
:10155000039010980078002800D0012001994118CC
:101560000298C0170918039809180498401A401ED9
:101570000490E00306D421461A9B199A049800F0BF
:101580005FF8451910980078002803D01A9A199925
:1015900090476D1CE00324D521461A9B199A0498A4
:1015A00000F04EF845191CE00098002807DB009970
:1015B0000598884203DD1598405C199901E0199956
:1015C00030201A9A904700986D1C401C0090029899
:1015D000401E0290002804D11A9A2E201999904793
:1015E0006D1C0199481E01900029DDDC05E038786A
:1015F0001A9A7F1C199990476D1C0399481E0390F5
:101600000029F4DC21461A9B199A0498ACE60000E4
:101610002D0000002B000000200000000000000052
:10162000F8B5044600251E461746880404D405E094
:1016300039462020B0476D1C641EF9D52846F8BDF8
:10164000FFB50446002581B01E46C80301D53027EA
:1016500000E02027880404D505E038460399B04708
:101660006D1C641EF9D5284605B0F0BD45434320E6
:101670006469676974616C207369676E61747572FF
:101680006520766572696669636174696F6E204F63
:101690004B21210A002B2D2D2D2D2D2D2D2D2D2DC6
:1016A0002D2D2D2D2D2D2D2D2D2D2D2D2D2D2D2D6A
:1016B0002D2D2D2D2D2D2D2D2D2D2D2D2D2D2D2D5A
:1016C0002D2D2D2B0A004543432064696769746101
:1016D0006C207369676E61747572652076657269D6
:1016E0006669636174696F6E206661696C65642EFA
:1016F0000A00454343207369676E61747572652003
:1017000067656E65726174696F6E206661696C658C
:10171000642E0A005075626C6963206B65792067DE
:10172000656E65726174696F6E206661696C65646F
:101730002E0A0050726976617465206B65792069A4
:1017400073206E6F742076616C69642E0A00706C71
:1017500061696E3A2025730A005075626C696320D6
:1017600051782020203D2025730A005075626C6955
:10177000632051792020203D2025730A007369677A
:101780006E5F7220203D2025730A007369676E5FCB
:101790007320203D2025730A006D657373616765B2
:1017A000203D2025730A0050726976617465206BB4
:1017B0006579203D2025730A007C202020204E6F73
:1017C0006E73656375726520636F6465206973204D
:1017D00072756E6E696E67202E2E2E205348413230
:1017E000353620202020207C0A007C202020204E1E
:1017F0006F6E73656375726520636F6465206973CE
:101800002072756E6E696E67202E2E2E2041455314
:1018100031323820202020207C0A007C202020200B
:101820004E6F6E73656375726520636F64652069C2
:10183000732072756E6E696E67202E2E2E204543C2
:101840004320502D32353620207C0A006465633AEF
:101850002000656E633A2000706C61696E3A20006A
:101860006469676573743A200048656C6C6F204D3D
:1018700045534C212049276D204B48552D54454553
:101880002E00253032580000981804100000013056
:0818900058080000B20D04101D
:04000005100401EDF5
:00000001FF
