:020000040000FA
:10000000D00C0020ED010000F5010000F701000018
:1000100000000000000000000000000000000000E0
:1000200000000000000000000000000009020000C5
:1000300000000000000000000B0200000D020000A4
:100040000F0200000F0200000F0200000F0200006C
:100050000F0200000F0200000F0200000F0200005C
:100060000F0200000F0200000F0200000F0200004C
:100070000F0200000F0200000F0200000F0200003C
:100080000F0200000F0200000F0200000F0200002C
:100090000F0200000F0200000F0200000F0200001C
:1000A0000F0200000F0200000F0200000F0200000C
:1000B0000F0200000F0200000F0200000F020000FC
:1000C0000F0200000F0200000F0200000F020000EC
:1000D0000F0200000F0200000F0200000F020000DC
:1000E0000F0200000F0200000F0200000F020000CC
:1000F0000F0200000F0200000F0200000F020000BC
:100100000F0200000F0200000F0200000F020000AB
:100110000F0200000F0200000F0200000F0200009B
:100120000F0200000F0200000F0200000F0200008B
:100130000F0200000F0200000F0200000F0200007B
:100140000F0200000F0200000F0200000F0200006B
:100150000F0200000F0200000F020000E90F000074
:100160000F0200000F0200000F0200000F0200004B
:100170000F0200000F0200000F0200000F0200003B
:100180000F0200000F0200000F0200000F0200002B
:100190000F0200000F0200000F0200000F0200001B
:1001A0000F0200000F0200000F0200000F0200000B
:1001B0000F0200000F0200000F0200000F020000FB
:1001C0000F0200000F0200000F0200000F020000EB
:1001D0000F0200000F0200000348854600F044FAB9
:1001E00000480047F9200000D00C00200C48804750
:1001F0000C480047FEE77046EFF30881EFF30982F1
:10020000094B98470047FEE7FEE7FEE7FEE7FEE7FB
:10021000ABBE064B7446984720477046F047000037
:1002200029130000D9010000C5100000B911000019
:10023000421C0178401C0029FBD1801A70470346FC
:100240000A780270401C491C002AF9D118467047F0
:1002500030B50B46014600202022012409E00D465E
:10026000D5409D4205D31D469540491B25469540E6
:1002700040191546521E002DF1DC30BDF0B51FB4FB
:100280000646002082B005464024019100901BE004
:10029000019922460F46304600F008FA049A059B61
:1002A000801A994110D310461946224600F0EEF903
:1002B000361A8F410197224601200021009F00F04D
:1002C000E5F938184D4100902046641E0028DFDC17
:1002D000019B00982946324607B0F0BDF0B50746AD
:1002E0000846584087B0C00F049048000E46590099
:1002F00040084908BC1A884105D2384631461E4696
:1003000017460B4602465800400810434CD0300DAB
:10031000039040055900400D490D0590401A029088
:10032000402872DA18030121000B090508430190E7
:1003300004980092002805D001995242002088417B
:1003400000920190029840210A1A0199009800F049
:100350009DF905460C466B4607CB00F0B8F9C0196D
:100360007141039A0E0D0023D71756401A467A4062
:10037000164344D0049A002A2DD0029A012A039AE7
:1003800015DC1205C01A914101263605001C714189
:10039000D20F059ED2070093019202962A46234669
:1003A00000F0B5F907B0F0BD38463146FAE716055A
:1003B000224A0F46B218C01AB74101210905001C94
:1003C0004F4100187F41114618187941E20F104340
:1003D0006D19644113E0E2076D0815436408C20714
:1003E0001443039A01261205C01A91413605001CD8
:1003F0007141CE07400830434908C01851412A4690
:10040000234600F077F9CDE7FFE70498012240008A
:10041000C117121A00238B4104983146C417381AA9
:10042000A141EEE730B40124E407634030BC55E756
:1004300030B40124E407614030BC4FE70000E0FF26
:10044000F0B51FB488B00B99099800244840099969
:10045000C00F490049080991C0070B990090490055
:1004600049080B9109990898A64608431CD00B9996
:100470000A98084318D0099801244000420D48000A
:10048000410D099824050003000B204309900B98A7
:100490000003000B20430B9050181C494018002209
:1004A00001901446104605E0002001460DB0F0BD55
:1004B000032801DA034600E003239C46C11A0AAE72
:1004C0000AE05F0008ADED5B4F00F75B7D4300275E
:1004D000AA187C41491C5B1E6145F2DD410004AB5A
:1004E0005A522104120C0A43240C401C0828DFDB5A
:1004F000019802900099704601910090059B049A22
:100500000799069800F003F9D0E700000DFCFFFF03
:10051000F0B50C465C4085B0E40FE40703944C0052
:100520000026640859009446490802460296224370
:1005300021D062460A431ED06200570D4A000E03C6
:100540002303550D012402462C492405781B1B0B5F
:10055000360B401823432643614600901C46501A30
:10056000B44103D30098401C009002E09218009818
:100570005B41002803DA0020014605B0F0BD0020F1
:10058000012109050746864611E064461D46141BF5
:10059000B54106D36546521BB341744607430C432D
:1005A000A646CD0740084908284392185B410546F6
:1005B0000D43EAD11046184313D060461946504007
:1005C0007140084306D06046101AB34106D201229A
:1005D000002306E000220123DB0702E00122D243D0
:1005E0005310009874460105381C6141029C039D1C
:1005F0000019694100F07EF8BFE70000FD0300002C
:100600004A0009030123090B1B0519430A4B10B5C6
:10061000520D9A4202DA0020014610BD064B3433D7
:100620009A4203DC9A1A00F041F810BD034BD2182D
:1006300000F02CF810BD0000FF030000CDFBFFFF11
:1006400010B5002904DB0124E40740428C41214617
:10065000002B04DB1C460123DB075242A3419942D5
:1006600000D1904210BD0000064C0125064E05E069
:10067000E36807CC2B430C3C98471034B442F7D3C3
:10068000FFF7AEFD782B0000982B000010B5202A54
:1006900004DB0146203A9140002010BD9140202308
:1006A0009C1A0346E3401943904010BD10B5202A20
:1006B00004DB0846203AD040002110BD0B46D34051
:1006C000D0402024A21A91400843194610BD10B50D
:1006D000202A06DBCB170846203A1041C1170B43EE
:1006E00006E00B461341D0402024A21A9140084353
:1006F000194610BD10B5002B08DA0024401C6141DA
:1007000092185B411A4301D14008400010BDF0B57A
:100710001FB482B005460C0003D0084601F03CFD32
:1007200002E001F039FD20300246009021462846C3
:10073000FFF7ACFF049B059A04460F46184311438C
:10074000084314D0184610431BD0009840210A1AC1
:1007500018460599FFF7AAFF05460E46009A059927
:100760000498FFF793FF084305D0012004E02046DA
:10077000394607B0F0BD0020C11705430E432C4396
:10078000374300990E986305401A7905E40A002260
:100790000C43FD0A0A3002D500200146E9E70105B5
:1007A000101969410C9C0D9D00196941FFF7A2FFCA
:1007B000DFE730B58C180278401C13071B0F01D1FE
:1007C0000378401C120906D10278401C03E005782A
:1007D0000D70401C491C5B1EF9D101E00B70491CD7
:1007E000521EFBD1A142E6D3002030BD80B58AB0B5
:1007F0000146079007983B4A10601068006808900F
:10080000089880F38888106840680690069801224E
:100810009043069006A80078C007002805912AD1C9
:10082000FFE70698000F012825D1FFE72E4801F0C9
:10083000A3FC0699002204901046F0B444464D46AD
:1008400056465F46F0B4012291430A460B460C46D9
:100850000D460E460F46884689468A468B468C468C
:1008600081F300888C47F0BCA046A946B246BB463F
:10087000F0BC039034E01D4801F07EFC1C4902905E
:10088000084601F079FC1B490991099981F3888890
:1008900019491A4A0A601A490691069900220190DC
:1008A0001046F0B444464D4656465F46F0B4012229
:1008B00091430A460B460C460D460E460F468846A7
:1008C00089468A468B468C4681F300888C47F0BC6B
:1008D000A046A946B246BB46F0BC0090FFE7FEE743
:1008E0000AB080BD08ED02E00F2B0000F02A0000E6
:1008F000522B00000002013000000130FFE7FEE74C
:100900000100013083B0014601AA10701078092857
:10091000009105DCFFE70198303002A908700DE076
:1009200001A800780F2805DCFFE70198573002A9DD
:10093000087003E002A800210170FFE702A8007818
:1009400003B0704784B001460390002002900190EC
:1009500003981F2210400122824002920748019012
:100960000398800F8000019A101801900298019A54
:10097000136803431360009104B070470402004001
:1009800082B00146019001988A4A136803431360BC
:10099000009102B07047C046B0B592B0564807A962
:1009A0003CC83CC13CC83CC1544801905448006814
:1009B00002210840009053480068069006A88078FD
:1009C0000521084204D0FFE750480021016037E0CC
:1009D00006A880780007002803D5FFE76648059041
:1009E00002E065480590FFE706A8807880070028A8
:1009F00004D5FFE705984549086020E006A800886F
:100A0000800B01A908180078029006983E4908401A
:100A1000801C0490069843F600610840400A401C80
:100A20000390059880080499484340000399029A6E
:100A30004A43B0FBF2F0800034490860FFE7FFE76B
:100A4000B34800680721084010901098012823D16E
:100A5000FFE70098002806D1FFE729480168022235
:100A600011430160FFE72A4800680006002804D50A
:100A7000FFE747F60050119003E048F200001190A4
:100A8000FFE70098002806D1FFE71D480168022211
:100A900091430160FFE70EE01098022804D1FFE7C0
:100AA0001A480068119005E01098800007A90858BE
:100AB0001190FFE7FFE75B4800680F210840401CEA
:100AC0000F9011980F99B0FBF1F0A84908600868E1
:100AD000104A8018104AB0FBF2F0104A1060086803
:100AE00012B0B0BC02BC8E46714672467346F446E4
:100AF0008EF300887447C046D02A00000102020429
:100B00000802004040020040FF01000004000020F5
:100B10000011044020A1070040420F000000002007
:100B200080B500F0E5FB9148006880BC02BC8E46B1
:100B3000714672467346F4468EF300887447C04689
:100B400082B000200190DC4800680121084000903C
:100B50000098002803D0FFE7B048019002E0002091
:100B60000190FFE7019802B0714672467346F44661
:100B70008EF300887447C046001BB70082B0002087
:100B80000190CD480068022108400090009800289C
:100B900004D0FFE748F20000019002E0002001903D
:100BA000FFE7019802B0714672467346F4468EF331
:100BB000008874470002004088B00146079000207A
:100BC000069005901648C2680492826803924268B3
:100BD0000292006801900798800A000600280091A0
:100BE00015D0FFE707A840880C21084001A9085844
:100BF000E349401805900598006807998A0AD2B21F
:100C00008905C90E8A401040C8400690FFE7069843
:100C100008B0714672467346F4468EF300887447F6
:100C2000C02A00002002004088B001460790002042
:100C3000069005903148C268049282680392426827
:100C400002920068019007982D4A9042009106D1C7
:100C5000FFE73048006801210840069044E007980B
:100C60002849884207D1FFE72A4800680221084046
:100C70004008069037E007982349884208D1FFE7EB
:100C80002448006840F200110840000A069029E05C
:100C900007981E49884208D1FFE71E48006840F2C5
:100CA00000210840400A06901BE007980001400F11
:100CB000002815D0FFE70798800E0C21084001A9F5
:100CC0000858B749401805900598006807990A0127
:100CD000520FC901C90E8A401040C8400690FFE774
:100CE000FFE7FFE7FFE7FFE7069808B071467246A7
:100CF0007346F4468EF300887447C046B02A00005D
:100D0000100000801100008012000080130000809D
:100D1000100200401802004080B500F0E9FA1348C4
:100D200000681349096807221140C84080BC02BC12
:100D30008E46714672467346F4468EF300887447B9
:100D400080B500F0D5FA09480068094909687022A1
:100D500011400909C84080BC02BC8E4671467246EB
:100D60007346F4468EF300887447C046080000209E
:100D70003402004087B000200690264800902648A4
:100D80000068059005A880780521084203D0FFE798
:100D90000020069035E005A880780007002803D5DC
:100DA000FFE71E48049002E01C480490FFE705A8F6
:100DB00080788007002803D5FFE7049806901FE09D
:100DC00005A80088800B69460818007801900598EE
:100DD00013490840801C0390059843F600610840C1
:100DE000400A401C02900498800803994843400040
:100DF0000299019A4A43B0FBF2F080000690FFE7A7
:100E0000FFE7069807B0714672467346F4468EF3C4
:100E1000008874470102020440020040001BB70032
:100E2000FF010000B0B586B00A4603460590049164
:100E30006C4800681021084003901F48046804258E
:100E40002C43046008460292019300F0ABF8544929
:100E50000A6807231A430A6018490A6840F2001317
:100E60009A430A6046490A680F239A43049B1A432F
:100E70000A6005990529009009D1FFE70F4801682C
:100E800040F2031211430C2291430160FFE74448F2
:100E9000016807229143059A1143016000F028FA86
:100EA0000398002806D1FFE7034801680422914314
:100EB0000160FFE706B0B0BD000200404CC000403A
:100EC000B0B590B013460C4605460F900E910D92AA
:100ED00000200C900B902848C1680A918168099104
:100EE00041680891006807902448C16806918168AC
:100EF000059141680491006803900F98800A0006EC
:100F0000002802930194009517D0FFE70FA84088AE
:100F10000C21084003A90858194940180B900B9858
:100F200000680F998A0AD2B28905C90E8A40904397
:100F30000D9908430B990860FFE70F980001400FD7
:100F4000002817D0FFE70F98800E0C21084007A952
:100F50000858134940180C900C9800680F990A0122
:100F6000520FC901C90E8A4090430E9908430C994B
:100F70000860FFE710B0B0BD902A0000A02A000072
:100F80002002004082B001460190054802683823E3
:100F90009A43019B1A430260009102B07047C04619
:100FA0001002004084B0014603900D4802900120D9
:100FB00001900091FFE70B480068039908408842C0
:100FC0000AD0FFE70298411E0291002803DCFFE7E8
:100FD0000020019000E0EEE7019804B07047C046A1
:100FE000009F2400500200400E4800688001800FDE
:100FF000002808D0FFE70C4801210160032000060B
:1010000008490860FFE7074800688007002807D004
:10101000FFE7064801210160024803210160FFE764
:101020007047C04604200340C8040020C4040020C8
:1010300080B51C48006801218904884231D0FFE74F
:1010400000F014F91848112101601848184901608E
:10105000184800210160184801210160FFE7164887
:101060000068002801D0FFE7F9E714480068401C39
:10107000002814D1FFE701208104104A11600D49B6
:1010800021220A600C490860FFE70B48006800282D
:1010900001D0FFE7F9E70A4801210160FFE7FFE718
:1010A000FEE780BD28F0024000C0004004C00040C0
:1010B000000820000CC0004010C0004008C00040E4
:1010C00008000040B0B589B013460C4605460690AE
:1010D0000591049206A80078400600280293019426
:1010E00000950DD5FFE706A800784007002803D536
:1010F000FFE70498039002E005980390FFE712E0F1
:1011000006A800784007002806D5FFE7EFF389809E
:1011100007900798039005E0EFF3888008900898FF
:101120000390FFE7FFE7FFE703980068012108430A
:10113000002801D0FFE7F7E7069809B0B0BD00002E
:1011400081B0144800210160134801601348016018
:1011500001200004124A1060124801601248016028
:1011600012480160124801600B200090FFE70098D0
:1011700008280CDBFFE70098012181400D48026838
:101180000A430260FFE70098401E0090EFE701B0BD
:101190007047C04600F0024004F0024008F00240F0
:1011A0000CF0024010F0024014F0024018F002402F
:1011B00020F0024024F00240B0B586B013460C4641
:1011C0000546059004910392002002930194009536
:1011D00006B0B0BD80B584B004200390FFF7D0FB0B
:1011E0001020FFF7DFFE1549154A0A6003990290A7
:1011F0000846FFF7D7FE022101220190084611465A
:10120000FFF710FE1820FFF7BDFE0E480090FFF715
:1012100099FB0320010600220098FFF751FE0C20E5
:10122000FFF790FB08480168FF2212049143332224
:1012300052048918016004B080BDC04640020040DD
:101240000E040800103D80573C000040FFE70F48A7
:10125000592101601621016088210160FFE70B48D8
:1012600000680028F3D0FFE77047C046FFE7074853
:10127000592101601621016088210160FFE70348C0
:1012800000680028F3D0FFE77047C0460001004027
:1012900080B582B0014601900198009100F002F8FB
:1012A00002B080BD82B0014601900091FFE70E4878
:1012B00000680002002801D5FFE7F8E701980B4914
:1012C000086001A800780A280CD1FFE7FFE706486C
:1012D00000680002002801D5FFE7F8E703480D2168
:1012E0000160FFE702B07047180007500000075088
:1012F00080B53DF0BDFE074908603DF099FE064906
:1013000008600868054940180549B0FBF1F0054937
:10131000086080BD040000200800002020A1070014
:1013200040420F000000002080B5054805490860D4
:1013300000F00AF8FFF704FFFFF77AFE80BDC04611
:101340000000000008ED00E010B51B48032101601B
:101350003F210903194A116019491A4B0B600423F4
:101360000360194B1360194B0B6005230360184C85
:101370001460184C0C6006240460174C1460174C61
:101380000C600724046018071060154808601548B1
:10139000012101601448016808229143016013484B
:1013A000134901601348002101601348016013488C
:1013B00001601348016010BDD8ED00E0DCED00E0F5
:1013C000E0ED00E0E3FF030000000410E1FF071080
:1013D000007E8000E37F800000000130E17F01306B
:1013E000E1FFFF5FD0ED00E010ED00E00CED00E06C
:1013F0000000FA0580E300E084E300E088E300E019
:101400008CE300E0034804490160044803210160C3
:101410007047C04624000750660000300C0007509B
:10142000F0B583B0029315460E4607460120040727
:10143000FEF7F3FE20420ED10998089940F21842B7
:10144000C2F2000214686A461160506038463146A4
:101450002A46029BA04703B0F0BDF0B583B00293CB
:1014600015460E46074601200407FEF7D6FE204229
:101470000CD1089840F21C41C2F200010C68694688
:101480000860384631462A46029BA04703B0F0BDAB
:10149000F0B581B014460D46064601200707FEF759
:1014A000BCFE38420DD140F22040C2F20000036879
:1014B00030462946224601B0049CA646F0BC01B045
:1014C000184701B0F0BDF0B581B0009315460E4647
:1014D000074601200407FEF7A0FE204209D140F292
:1014E0002440C2F200000468384631462A46009B78
:1014F000A04701B0F0BDF0B581B014460D460646D8
:1015000001200707FEF789FE38420DD140F228403E
:10151000C2F20000036830462946224601B0049C0E
:10152000A646F0BC01B0184701B0F0BDF0B583B0DD
:10153000029315460E46074601200407FEF76DFE8E
:1015400020420ED1089840F23441C2F200010C68EA
:1015500069460860384631462A46029BA04703B0D8
:10156000F0BD40F20000CFF2F00003B0F0BDF0B5E6
:1015700085B0049315460E46074601200407FEF782
:101580004CFE204212D10C980B990A9A40F2384333
:10159000C2F200031C686B461A60596098603846B6
:1015A00031462A46049BA04705B0F0BD40F200003A
:1015B000CFF2F00005B0F0BDF0B581B014460D4695
:1015C000064601200707FEF728FE38420DD140F2FB
:1015D0003C40C2F20000036830462946224601B072
:1015E000049CA646F0BC01B0184740F20000CFF2C0
:1015F000F00001B0F0BDF0B585B0049315460E467D
:10160000074601200407FEF708FE204212D10C987D
:101610000B990A9A40F24043C2F200031C686B46E1
:101620001A6059609860384631462A46049BA047A4
:1016300005B0F0BD40F20000CFF2F00005B0F0BD03
:10164000F0B581B0009315460E4607460120040709
:10165000FEF7E3FD204209D140F24440C2F200000F
:101660000468384631462A46009BA04701B0F0BDC9
:1016700070B50C46054601200607FEF7CEFD304248
:101680000AD140F24840C2F20000026828462146D2
:1016900070BC08BC9E46104770BDF0B581B01446C2
:1016A0000D46064601200707FEF7B7FD38420DD16B
:1016B00040F24C40C2F20000036830462946224600
:1016C00001B0049CA646F0BC01B0184701B0F0BDC3
:1016D00070B50C46054601200607FEF79EFD304218
:1016E0000AD140F25040C2F200000268284621466A
:1016F00070BC08BC9E46104770BDF0B581B0144662
:101700000D46064601200707FEF787FD38420DD13A
:1017100040F22C40C2F200000368304629462246BF
:1017200001B0049CA646F0BC01B0184740F200008E
:10173000CFF2F00001B0F0BD70B50C4605460120B7
:101740000607FEF76AFD30420AD140F23040C2F28D
:10175000000002682846214670BC08BC9E4610471F
:1017600040F20000CFF2F00070BD000082B00146F0
:1017700001900198002800910FDBFFE701981F21DD
:1017800002460A400121914040098000044A8150EC
:10179000BFF34F8FBFF36F8FFFE702B07047C046B4
:1017A00080E100E082B0014601900198002800919C
:1017B0000BDBFFE701981F2102460A4001219140FF
:1017C00040098000024A8150FFE702B07047C046DE
:1017D00000E100E084B00146039003986428019181
:1017E00000903AD0FFE70098652839D0FFE70098CD
:1017F000662838D0FFE70098672837D0FFE70098C1
:10180000682836D0FFE70098C82835D0FFE7009851
:10181000C92834D0FFE70098CA2833D0FFE740F248
:101820002C100099814230D0FFE740F22D10009932
:1018300081422DD0FFE740F22E10009981422AD03C
:10184000FFE740F22F100099814228D0FFE740F2D5
:1018500030100099814226D028E01420029025E023
:101860001C20029022E0202002901FE030200290F5
:101870001CE04020029019E01020029016E0182091
:10188000029013E02020029010E0C02002900DE0B2
:10189000E02002900AE040F20010029006E040F2E0
:1018A0008010029002E003480290FFE7029804B023
:1018B0007047C04609020000F0B503AFA7B06E46FE
:1018C000F41D6934BD6830631846F0621046B0629A
:1018D00008467062306B3062306BA06261622262D7
:1018E000E361F461B56100F0F3FBB868C117490F1B
:1018F0004018C0106946F2699160C11D07239943E1
:101900006B46591A8D465060B8681060DA48036813
:101910000324A40523430360F01D2D3000237061D0
:1019200031611946F360FFF707FFF1690A68D317C1
:101930005B0FD218D2107369B06018463169FFF797
:10194000DCFEF168F269516111617060FFE7F069D6
:1019500041690268D3175B0FD218D210914221DA85
:10196000FFE7F06941693269515C0F23194008466D
:10197000FEF7C8FFF1698A6A0B695C1C0C61D054E0
:1019800048693269105C0009FEF7BCFFF1698A6A98
:101990000B695C1C0C61D054FFE7F0694169491C7C
:1019A0004161D4E7F069816A026900238B54C169FF
:1019B000B24A89180429316022D83068810001A216
:1019C00051188F4600F008B800F00AB800F00CB8C3
:1019D00000F00EB800F010B80020F169C8600FE008
:1019E0000120F169C8600BE00220F169C86007E0DE
:1019F0000320F169C86003E00420F169C860FFE7D3
:101A0000F069C168826AE948FFF7D6FD00281CD05A
:101A1000FFE7F069C168826A436A046A82B06D4672
:101A20002C60E248FFF782FD02B0002805DAFFE7EC
:101A30000120C043F169886103E00020F1698861F9
:101A4000FFE70020F169886104E00020C043F169EC
:101A50008861FFE7F0698069F1698A689546FC1F33
:101A6000053CA546F0BDC046F0B58BB01C461546FA
:101A70000E4607460A900991089207930798049426
:101A8000039502960197FFF7A5FE06900A9809991B
:101A9000089A079B069C6D462C60FFF70DFF05908A
:101AA00005980BB0F0BC02BC8E4671467246734678
:101AB000F4468EF30088744780B586B00A46034624
:101AC000059004910599BA4803920293FEF7B7FB7B
:101AD0000499B44A1160019006B080BDF0B503AF1F
:101AE000A7B06E46F41D65341D46F0621046B06224
:101AF00008467062F06A3062F06AE062A162626277
:101B00002362F461B56100F0E3FAA6480068FFF7CC
:101B100061FEF169C861C869C217520F8018C01010
:101B20006A468A60C21D07239A436B469A1A9546F5
:101B30004860C86908609A4803680324A4052343E1
:101B40000360F01D29300023706119463261F36093
:101B5000FFF7F2FDF1690A68D3175B0FD218D210B4
:101B60007369B06018463169FFF7C7FDF168F26923
:101B7000516111617060FFE7F06941690268D31734
:101B80005B0FD218D210914221DAFFE7F069416968
:101B90003269515C0F2319400846FEF7B3FEF16924
:101BA0008A6A0B695C1C0C61D05448693269105C0C
:101BB0000009FEF7A7FEF1698A6A0B695C1C0C61DB
:101BC000D054FFE7F0694169491C4161D4E7F069ED
:101BD000816A026900238B5472490968724A891824
:101BE0000429316022D83068810001A251188F4643
:101BF00000F008B800F00AB800F00CB800F00EB819
:101C000000F010B80020F169C8600FE00120F16910
:101C1000C8600BE00220F169C86007E00320F169A9
:101C2000C86003E00420F169C860FFE7F069C1689B
:101C3000C36A826A446A056A84B068468560446003
:101C40000260C0485A4AFFF792FC04B0002805DA47
:101C5000FFE70220C043F169886103E00120F169D8
:101C60008861FFE7F0698069F1698A689546FC1F21
:101C7000053CA546F0BDC04600200340D4FEFFFF52
:101C8000F0B589B01C4615460E46074608900791E8
:101C90000692059308980799069A059B0394029566
:101CA00001960097FFF71AFF0490049809B0F0BC62
:101CB00002BC8E46714672467346F4468EF3008827
:101CC000744780B584B00A46034603900291039896
:101CD000029901920093FFF7EFFE04B080BC01BCB3
:101CE00086467046714672467346F4468EF3008807
:101CF00074470000F0B58FB01C4615460E460746E7
:101D00000E900D910C920B930894079506960597EB
:101D100000F0DEF9F74801680322920511430160E3
:101D20002048006820494018042804901DD80498D1
:101D3000810001A251188F4600F008B800F009B8E0
:101D400000F00AB800F00BB800F00CB800200990C1
:101D50000BE00120099008E00220099005E0032033
:101D6000099002E004200990FFE709990E9B0D9865
:101D70000C9A0B9C6D46AC606A602860B5480C4AB2
:101D8000FFF739FC002804DAFFE70320C0430A907C
:101D900002E002200A90FFE70A980FB0F0BDC046AB
:101DA00000200340AC040020D4FEFFFF2C000020E4
:101DB000B0040020F0B589B01C4615460E46074613
:101DC000089007910692059308980799069A059B33
:101DD0000394029501960097FFF78CFF04900498F6
:101DE00009B0F0BC02BC8E46714672467346F4469A
:101DF0008EF3008874470000F0B503AF93B06E46D1
:101E0000F41D29341D46F0621046B0620846706227
:101E1000F06A3062F06AA06161612261E360F4619E
:101E2000B56100F055F9F069C1686A4682608A00C0
:101E3000D21D07239A436B469A1A95464160472064
:101E40007261FFF7AFFCAB48016803221206114331
:101E50000160F069016964390429316132D830695F
:101E6000810001A251188F4600F008B800F00EB8AA
:101E700000F013B800F018B800F01DB87548032240
:101E80000021F160F368FFF7DBFB1BE071480521DF
:101E900003220023FFF7D4FB14E06E480421032241
:101EA0000023FFF7CDFB0DE06A4807210322002342
:101EB000FFF7C6FB06E06748062103220023FFF771
:101EC000BFFBFFE7F06981690846B160FEF7B0F932
:101ED000604970600846B268316011467268FFF769
:101EE000DCFB05213068FFF7F3FB17480021016098
:101EF00030687169FFF7BCFBFFE7134800680028F2
:101F000001D1FFE7F9E70020F1690860FFE7F06918
:101F10000168C26891420DDAFFE7F0690168890043
:101F20007269535844696350FFE7F0690168491CBE
:101F30000160ECE7F06981688D46FC1F053CA54611
:101F4000F0BDC0462C000020C8040020B0B588B009
:101F500013460C4605460790069105920598039393
:101F600002940195FFF736FC049007980699059AAC
:101F7000049BFFF741FF08B0B0BC01BC8646704629
:101F8000714672467346F4468EF30088744700002B
:101F9000F0B591B0169C1D4616460F460B900A9060
:101FA0000B9810900F910E920D9309940895079637
:101FB000069700F08DF84720FFF7F4FB4D480168C5
:101FC0000322114301600D98C828059008D0FFE74F
:101FD0000598C92807D0FFE70598CA2806D008E069
:101FE00000200C9005E001200C9002E002200C90F3
:101FF000FFE7169A0C98694603234B600860154862
:10200000002104900391039BFFF70AFA0C9B124AEC
:1020100004980399FFF757FA104A04980399FFF7B9
:1020200037FA109A0F9B0E98694608600498039936
:10203000FFF713FA0A480399016005220498FFF795
:102040005AFAFFE706480068002801D1FFE7F9E7E0
:1020500011B0F0BD2C0000200C000020B4040020C2
:10206000C4040020F0B58BB01C4615460E4607464A
:102070000A9009910892079308980594049503968D
:102080000297FFF7A7FB06900A980999069A089B02
:10209000079C6D462C60FFF77BFF0BB0F0BC01BCCA
:1020A00086467046714672467346F4468EF3008843
:1020B000744780B584B00A460346039002910398A2
:1020C00001920093FFF7E4F8039804B080BD00008C
:1020D00080B508480168032213069943016001682E
:1020E0009143016001689205914301604720FFF729
:1020F0003DFB80BD0020034080B584B000200290ED
:10210000FFF7A4F8FFF766F8FFF77CF914480168B9
:1021100001221143016013481349016000680068FF
:102120000390039880F38888FFE7104800688004D4
:10213000002805D5FFE70F4800F01EF8019004E0E5
:102140000B4800F019F80090FFE70748FEF74EFB38
:10215000FFE701200028E8D1FFE7029804B080BD26
:1021600020F0024008ED02E0000004100CED00E059
:102170002C2B00003D2B00000FB410B503A9044B1D
:10218000044A029800F0E8F810BC08BC04B01847F4
:10219000B3200000580400202021020C01D010219F
:1021A0001046020A01D010460839020901D0104633
:1021B000091F820801D01046891E420801D0881EDE
:1021C0007047081A704702E008C8121F08C1002AA9
:1021D000FAD170477047002001E001C1121F002AA8
:1021E000FBD17047F0B51FB486B00998089A030D6B
:1021F0000021024314D05148514A18185043051485
:102200001198012810981AD0281A401C00264D4F0A
:102210004D49009601910490002812DA444211E0E1
:102220001198012449A3012801D11098C1430698AF
:10223000119A84600360C26041600BB0F0BD4042FF
:10224000E4E70446210500203F4A001C5141039168
:10225000029012E0E00707D032463B460199009811
:10226000FEF7EEF80191009032463B4610461946C3
:10227000FEF7E6F806460F466410002CEAD10498F3
:10228000039B0028029A0999089806DAFEF7D8F805
:10229000019B009AFEF7D4F805E0FEF739F9019B9F
:1022A000009AFEF735F904460E460022284BFEF749
:1022B000C7F903D80020C043014607E00022254BA0
:1022C00020463146FEF70AF8FEF79AF9102409E095
:1022D000002C0ADB0A220023FDF7D0FF079B3032D7
:1022E0001A55641E02460A43F2D11122641C079B50
:1022F000121B1C19119B012B03D0012308430ED183
:102300000AE0084304D0112010900020119077E7D4
:102310001098151A6D1E0BE01098824202DD002302
:102320006D1C03E0824201DA00236D1E002BEED00B
:10233000069811998260C16030C07EE701FCFFFF02
:10234000104D0000000014400000F03F300000007D
:102350000000F0430000E03FFFB597B006460025BF
:1023600018E2252877D100242746FD49049400E08F
:102370000443761C32780120203A90400842F7D17D
:1023800030782A280ED002223078014630390929C7
:1023900016D804990A235943303940181443761C3F
:1023A0000490F1E7189802C804911890002904DA03
:1023B0000120400304434842049002200443761C59
:1023C00030782E2814D1042004437078761C2A28F3
:1023D00009D11898761C80C8189009E00A214F434B
:1023E000303FC719761C3078014630390929F5D9B4
:1023F00030786C2810D006DC4C281AD068280ED013
:102400006A2817D104E0742813D07A2812D110E07A
:102410000120400504430CE00121090501E00321EE
:1024200009050C437178814203D10120000524186D
:10243000761C761C3078119066280BD013DC582857
:102440007DD009DC00287BD04528F6D04628F4D082
:1024500047281AD1A5E118E0632835D0642870D048
:10246000652812D19DE170286CD008DC6728F1D076
:1024700069287BD06E280DD06F2806D1BAE073286A
:102480002ED0752871D0782859D01A9A199990476A
:102490006D1C7EE16002400F022809D003280DD098
:1024A0000428189801680DD00D60001D189070E187
:1024B0001898EA1701680D604A60F6E718980168F5
:1024C0000D80F2E70D70F0E718986A4601781172F6
:1024D000001D18900020507202A80090012005E015
:1024E000189802C8189000200091C04361070DD5CC
:1024F000002101E00199491C0191B94212DA81429F
:10250000F8DB009A515C0029F4D10BE0002101E0D6
:102510000199491C01918142FADB019A0099895C79
:102520000029F5D1019904981A9B471A214638468B
:10253000199A00F097FA0199401945180BE04FE0FD
:102540002CE113E04EE0009800990078491C0091BE
:102550001A9A199990470198401E0190401CF2D197
:10256000214638461A9B199A10E137E00A200021CB
:10257000009001916002410F022907D0189A01CA08
:102580001892C2179446032908D00AE01898C01D73
:10259000C108C90005C91891944607E000B2C217E6
:1025A0009446042902D140B2C1178C4600226146EC
:1025B000944506DA0A460021404291418C462D217D
:1025C00002E0210504D52B216A461173012103E0A5
:1025D000E10701D02021F7E7029155E00A200AE047
:1025E000102008E0102000900021042004430191F5
:1025F000082703E008200021019100906002410FAC
:10260000022907D0189A01CA189200229446032979
:1026100008D008E01898C01DC108C90005C9189164
:10262000944603E080B2042900D1C0B20021029197
:10263000210729D51199702906D0009A1021019BF4
:102640004A401A4305D00EE040216A461173012129
:1026500008E06146014306D030216A4611731199A2
:10266000517302210291009A0821019B4A401A43AA
:102670000AD16146014301D1610705D530216A467F
:10268000117301217F1E02911199582904D035A19F
:102690000E910DA90D910DE037A1F9E76146019B5F
:1026A000009AFDF7EBFD0E9B8C469B5C0D9A521E2B
:1026B0000D92137061460143F0D10D9805A9081AD7
:1026C00020300190600703D501200004844300E01E
:1026D00001270198874201DD381A00E000200199A6
:1026E00000904118029809180498401A0490E003D9
:1026F00006D421461A9B199A049800F0B3F945199B
:10270000002706E003A81A9AC05D199990476D1C2E
:102710007F1C02988742F5DBE0030CD521461A9B0B
:10272000199A049800F09EF9451904E01A9A30208D
:10273000199990476D1C0099481E00900029F5DCFE
:1027400008E00D980D990078491C0D911A9A199975
:1027500090476D1C0199481E01900029F1DC63E14E
:102760000928010030313233343536373839616267
:10277000636465660000000030313233343536372B
:1027800038394142434445460000000000F05AF900
:102790004519761C3078002800D0E2E528461BB0A9
:1027A000F0BD600700D406271898C01DC108C900F5
:1027B00048680A680831C30FDB071891190001D077
:1027C0009CA108E0210501D59BA104E0E10701D00F
:1027D0009AA100E09AA1430011985B081091652826
:1027E0000CD006DC452809D046281DD0472841D109
:1027F00041E0662818D067283CD13CE00021112F29
:1028000001DB112000E0781C0191009008A911A8BB
:10281000FFF7E8FC139905910021119A15927F1C8E
:1028200012980197009150E00120C0070390012009
:10283000019008A9009711A8FFF7D4FC139A1499E6
:1028400005920022119B009212981593059A01920D
:10285000002901D0104602E0791C40180190381A76
:1028600001D5019804E04042401E0090781C019080
:10287000C01B029043E0012F00DA01270021112F35
:1028800001DD112000E038460191009008A911A84F
:10289000FFF7A8FC13990591119A0021129815923F
:1028A0000091019721070CD40599B94201DB0199E8
:1028B00000E00191012904DD159A491E515C30297F
:1028C00006D0B84201DA011D05DA0121029115E0B6
:1028D0000199491EEDE7002805DC00994118009197
:1028E0000199091A03E0019A411C914200DD01910E
:1028F0000099401A401C02900120C0070390200755
:1029000006D402990198814202DB0020C043029064
:1029100000206946C87707AF012103980337C9072C
:10292000884224D0022011902B2012900398002876
:102930000CDA404203902D20129007E00A21039800
:10294000FDF786FC30317F1E039039701199481EC7
:1029500011900029F2DC03980028EFD1791E12981B
:1029600008703078202108404530BF1E387006A816
:10297000C01BC01D039010980078002800D00120D3
:10298000019941180298C01709180398091804986A
:10299000401A401E0490E00306D421461A9B199A5F
:1029A000049800F05FF8451910980078002803D0CB
:1029B0001A9A199990476D1CE00324D521461A9B59
:1029C000199A049800F04EF845191CE00098002868
:1029D00007DB00990598884203DD1598405C19993A
:1029E00001E0199930201A9A904700986D1C401CFC
:1029F00000900298401E0290002804D11A9A2E20BE
:102A0000199990476D1C0199481E01900029DDDC41
:102A100005E038781A9A7F1C199990476D1C039924
:102A2000481E03900029F4DC21461A9B199A049849
:102A3000ACE600002D0000002B000000200000008C
:102A400000000000F8B5044600251E46174688041D
:102A500004D405E039462020B0476D1C641EF9D52A
:102A60002846F8BDFFB50446002581B01E46C803C0
:102A700001D5302700E02027880404D505E038463A
:102A80000399B0476D1C641EF9D5284605B0F0BD0A
:102A90000000000004000000080000000C0000001E
:102AA000000000000400000008000000100000000A
:102AB0000000000004000000080000000C000000FE
:102AC00000000000040000000800000010000000EA
:102AD000001BB7000080000000000000102700006D
:102AE00000000000006CDC0200000000001BB700CA
:102AF0004E6F20636F646520696E206E6F6E2D735C
:102B0000656375726520726567696F6E210A00459D
:102B1000786563757465206E6F6E2D73656375726D
:102B20006520636F6465202E2E2E0A006279207363
:102B3000656375726520636F64652E0A0062792093
:102B40004E6F6E2D73656375726520636F64652EBD
:102B50000A004350552077696C6C2068616C74657D
:102B600064206174206E6F6E2D73656375726520CD
:102B700073746174650A0000982B00000000002047
:102B800058040000B2070000102C00005804002078
:102B900078080000D62100005230002CFF6CDC02C7
:102BA000006CDC0203020100070605040B0A090899
:102BB0000F0E0D0C03020100070605040B0A09089D
:102BC0000F0E0D0C0020034001FF01FF01EF2C55FB
:102BD0005E8000835E8000A35E802CC55E8000E77F
:102BE0005E8000811A802C751B8000075F8000AD1D
:102BF00060802CCB638000A1648000FF68806C172C
:102C00006980004369800053698000000000000073
:020000040003F7
:10F000007FE97FE9C2F730BD7FE97FE9C2F738BE0B
:10F010007FE97FE9C2F755BE7FE97FE9C2F7CABE43
:10F020007FE97FE9C2F792BF7FE97FE9C3F71AB8AA
:10F030007FE97FE9C1F7B0BC7FE97FE9C1F770BD27
:10F040007FE97FE9C1F77CBD7FE97FE9C1F796BD24
:10F050007FE97FE9C1F7B0BD7FE97FE9C1F7E4BD92
:10F060007FE97FE9C1F758BE7FE97FE9C1F768BE54
:10F070007FE97FE9C1F77EBE0000000000000000CC
:04000005000001D91D
:00000001FF
